{
  "_format": "hh-sol-artifact-1",
  "contractName": "PriceFeeds",
  "sourceName": "contracts/PriceFeeds.sol",
  "abi": [
    {
      "inputs": [],
      "name": "getBtcPrice",
      "outputs": [
        {
          "internalType": "int256",
          "name": "",
          "type": "int256"
        }
      ],
      "stateMutability": "view",
      "type": "function"
    },
    {
      "inputs": [],
      "name": "getEthPrice",
      "outputs": [
        {
          "internalType": "int256",
          "name": "",
          "type": "int256"
        }
      ],
      "stateMutability": "view",
      "type": "function"
    },
    {
      "inputs": [],
      "name": "getGoldPrice",
      "outputs": [
        {
          "internalType": "int256",
          "name": "",
          "type": "int256"
        }
      ],
      "stateMutability": "view",
      "type": "function"
    },
    {
      "inputs": [],
      "name": "getLinkPrice",
      "outputs": [
        {
          "internalType": "int256",
          "name": "",
          "type": "int256"
        }
      ],
      "stateMutability": "view",
      "type": "function"
    },
    {
      "inputs": [],
      "name": "getSnxPrice",
      "outputs": [
        {
          "internalType": "int256",
          "name": "",
          "type": "int256"
        }
      ],
      "stateMutability": "view",
      "type": "function"
    }
  ],
  "bytecode": "0x608060405234801561001057600080fd5b506106d1806100206000396000f3fe608060405234801561001057600080fd5b50600436106100575760003560e01c80632dddd49c1461005c5780633a3610bc1461007a57806367c9b01714610098578063a62a2c11146100b6578063da6bae10146100d4575b600080fd5b6100646100f2565b6040516100719190610549565b60405180910390f35b6100826101a8565b60405161008f9190610549565b60405180910390f35b6100a061025e565b6040516100ad9190610549565b60405180910390f35b6100be610314565b6040516100cb9190610549565b60405180910390f35b6100dc6103ca565b6040516100e99190610549565b60405180910390f35b6000807348731cf7e84dc94c5f84577882c14be11a5b7456905060008173ffffffffffffffffffffffffffffffffffffffff1663feaf968c6040518163ffffffff1660e01b815260040160a06040518083038186803b15801561015457600080fd5b505afa158015610168573d6000803e3d6000fd5b505050506040513d601f19601f8201168201806040525081019061018c91906104c3565b505050915050620f4240816101a19190610564565b9250505090565b60008073a39434a63a52e749f02807ae27335515ba4b07f7905060008173ffffffffffffffffffffffffffffffffffffffff1663feaf968c6040518163ffffffff1660e01b815260040160a06040518083038186803b15801561020a57600080fd5b505afa15801561021e573d6000803e3d6000fd5b505050506040513d601f19601f8201168201806040525081019061024291906104c3565b505050915050620f4240816102579190610564565b9250505090565b60008073d4a33860578de61dbabdc8bfdb98fd742fa7028e905060008173ffffffffffffffffffffffffffffffffffffffff1663feaf968c6040518163ffffffff1660e01b815260040160a06040518083038186803b1580156102c057600080fd5b505afa1580156102d4573d6000803e3d6000fd5b505050506040513d601f19601f820116820180604052508101906102f891906104c3565b505050915050620f42408161030d9190610564565b9250505090565b60008073dc5f59e61e51b90264b38f0202156f07956e2577905060008173ffffffffffffffffffffffffffffffffffffffff1663feaf968c6040518163ffffffff1660e01b815260040160a06040518083038186803b15801561037657600080fd5b505afa15801561038a573d6000803e3d6000fd5b505050506040513d601f19601f820116820180604052508101906103ae91906104c3565b505050915050620f4240816103c39190610564565b9250505090565b600080737b219f57a8e9c7303204af681e9fa69d17ef626f905060008173ffffffffffffffffffffffffffffffffffffffff1663feaf968c6040518163ffffffff1660e01b815260040160a06040518083038186803b15801561042c57600080fd5b505afa158015610440573d6000803e3d6000fd5b505050506040513d601f19601f8201168201806040525081019061046491906104c3565b505050915050662386f26fc100008161047d9190610564565b9250505090565b60008151905061049381610656565b92915050565b6000815190506104a88161066d565b92915050565b6000815190506104bd81610684565b92915050565b600080600080600060a086880312156104db57600080fd5b60006104e9888289016104ae565b95505060206104fa88828901610484565b945050604061050b88828901610499565b935050606061051c88828901610499565b925050608061052d888289016104ae565b9150509295509295909350565b610543816105ce565b82525050565b600060208201905061055e600083018461053a565b92915050565b600061056f826105ce565b915061057a836105ce565b92508261058a57610589610627565b5b600160000383147f8000000000000000000000000000000000000000000000000000000000000000831416156105c3576105c26105f8565b5b828205905092915050565b6000819050919050565b6000819050919050565b600069ffffffffffffffffffff82169050919050565b7f4e487b7100000000000000000000000000000000000000000000000000000000600052601160045260246000fd5b7f4e487b7100000000000000000000000000000000000000000000000000000000600052601260045260246000fd5b61065f816105ce565b811461066a57600080fd5b50565b610676816105d8565b811461068157600080fd5b50565b61068d816105e2565b811461069857600080fd5b5056fea2646970667358221220372ca306ef0869798538e1db240e3c2bc012fa4cfbeb4778b56ef4450acfda1964736f6c63430008000033",
  "linkReferences": {},
  "deployedLinkReferences": {}
}